:10092000435963313131325F536D70306731363541
:03000B00021D5A79
:101D5A00C0E0C0F0C083C082C0D075D000C000C04F
:101D6A0001C002C003C004C005C006C007C28C304F
:101D7A003803121414D007D006D005D004D003D0EB
:101D8A0002D001D000D0D0D082D083D0F0D0E032BF
:03001B00021C4480
:101C4400C0E0C0F0C083C082C0D075D000C000C066
:101C540001C002C003C004C005C006C007C28E3064
:101C6400390A1220C75003120DA4C239D007D00676
:101C7400D005D004D003D002D001D000D0D0D0827F
:071C8400D083D0F0D0E03264
:03008B0002008EE2
:03008E00D2073264
:101E0200E5F230E20385FA5CE5F230E30385FB5E3E
:101E1200E5F230E00385F85D1210001208FD1211A0
:0F1E2200A41212F120610543F510D261C207220C
:101AC400E4F5D975F2CC75F3FF75AF201216E01268
:101AD4001EFC121F801220F243F40443F50443A7B2
:101AE40002900071E05407D39402400343F540E5AB
:101AF4004654F0440BF5F643E7C075F10FE4F5885E
:101B0400758911D2A9D2AB439A02D2AFE52060FC09
:101B1400300103121FBC300603120A60300703129F
:0A1B24001E023003E712200080E2E9
:1020790010FA50FA00FA10FAC0FA00FAF0FA010858
:02208900000055
:101F1F00AE071FEE601BE5402FF582E4353FF583DA
:101F2F00E493FEE5442FF582E43543F583EEF0802C
:021F3F00DF229F
:021BED00A90746
:101BEF00ED1489F0A42540F540E4353FF53FE4FFBF
:101BFF00EFC39D503BD25AE4FEEEC3995016E54019
:101C0F002EF582E4353FF583E493F46004C25A80E5
:101C1F00030E80E5205A028017E9FBC3E49BFBE427
:101C2F009400FAEB2540F540EA353FF53F0F80C0B1
:041C3F00C3ED9FFF53
:011C4300227E
:101ED900A25B925B754300754460E549454860061D
:101EE900AE48AF4980047E207F798E3F8F407F0EB8
:031EF900021F1FA6
:1016E000753F097540407D067F05121BEDEF6036A2
:1016F000854082853F83E493F5A2854082853F83C0
:10170000740193F5A3854082853F83740293F5A409
:10171000854082853F83740393F5A5854082853F8C
:1017200083740493F5A6753F0A7540587D047F02C3
:10173000121BEDEF600F854082853F83E493FE74BA
:101740000193FF80047E707F008E458F46753F09B0
:101750007540607D047F04121BEDEF6006AE3FAF65
:101760004080047E207F878E3F8F40754300754404
:10177000707F04121F1F753F0A7540207D047F0E85
:10178000121BEDEF6006AE3FAF4080047E007F008D
:101790008E488F49753F09754070E4F54AF54B7DD9
:1017A000047F1C121BEDEF6006853F4A85404BC24B
:0417B0005B021ED9E1
:03006B00021E6012
:101E6000C0E0E5AE54146020750804C22AD22DE506
:101E7000AD30E40353AFFBE5AD30E206433E024331
:0B1E80003B0453E3FE43AE14D0E032FD
:10001E00900070E030E20BE5AD20E20343AE044306
:03002E00AF0422FA
:101F800043AE14900070E0FF20E20330E30FEF3027
:0E1F9000E30343AF1012001E750801D2BD22FC
:10100000A22B925AE5ADA2E3922BA25A302B01B348
:10101000401FE513601ED5131BA22E302B01B350C9
:1010200013202C10A22B922EE5096008750903806D
:1010300003751303A229925A303804C22901E8909B
:101040000070E030E450302826302C23900066E019
:1010500054F0FD900068E0C4540FFFEF4DFFD3E55E
:101060005E9FE4940050047F0180257F00802190E2
:101070000060E054F0FD900062E0C4540FFFEF4DBB
:10108000FFC3E55E9FE4940050047F0180027F006F
:10109000EF6003D38001C39228302806433E1043FB
:1010A0003B01E5F530E009E5AD5402FF7E00802B01
:1010B000E5E330E022E545C4540F2420FFE433FE8D
:1010C000ADF9C3ED9FEE6480F87480985009302E1E
:1010D000067E007F0180047E007F00EF4E700330AB
:1010E0002803D38001C39229E509D394004039E550
:1010F000F530E00AE5E330E1057509038045302964
:101100000B1509AF09EF703BD22C8037E5F530E0C5
:10111000047F0380027F04E509C39F4007E4F509CB
:10112000C22C801F0509801BA25A302901B350131D
:1011300075090130290DE5F530E0047F0380027F59
:10114000048F09A22A925A900070E0FF30E305E56F
:10115000AD20E40EEF30E20DE5AD30E208E5AF3052
:10116000E203D38001C3925BEF30E505E5AD20E0FB
:1011700003305B03D38001C3922AA25A302A01B301
:101180004009E5086014D50811800B305B03302D51
:10119000057508048004A22A922D302A06433E01D8
:0311A000433B08C6
:0111A3002229
:101B2E00900071E05438F529A3E0A2E4924E54607F
:101B3E0024E0601224E0600924E0700F751CFA8026
:101B4E000D751CDC8008751CC88003751CB4538F82
:101B5E00F0A24C724B502F43F230538FEF1220F203
:101B6E00304C13751801438FC0304B0543961080CF
:101B7E000E5396EF8009751802439610E4F50CC2C9
:071B8E0048C24F750B012254
:0A1EB500900060E05403FEA3E0FF7C
:101EBF00E514B40511E515B4040C8E528F537F2C25
:0A1ECF0012000E0220D3750B022250
:101F9E00E50A540F7006E50B64046008E5E330E0D3
:0E1FAE0003303209121FF0121EB512206222FB
:101A5500AF0AAEFCEEC3943450047D00800CEED387
:101A650094FD40047D0280027D018D0AAEFDEEC32A
:101A75009434400FEED394FD40047E2080027E1006
:101A8500EE420AE50A6F6024E518B4020ABF1107A1
:101A9500E51D7003751D03E51DD3940140058F0AEF
:101AA500151D22750B01E4F50CF51D22E50BD394EC
:0E1AB50000400BE50B94FF5005E4F51D050BFA
:011AC3002200
:101FF00053F2CF5396EF538F2F1220F2E4F51822AD
:1012F100E5E330E003303214E53C20E70830E60551
:10130100E536B40207E53C20E40261F9121A55E51D
:101311001814601814603B14607914700261B014E1
:10132100700261B02405600261E28062E50B640332
:10133100600261E2204B0261E2E50A540FC39402AC
:10134100400261E2751802538F3FE4F50C750B0101
:1013510061E2E50B64047029E50CC39401500EE5CC
:101361000C7003121B95050C750B018014E50AB472
:10137100110F304D0C7518035396EF538F3F438F68
:1013810010E50A705C304C59E50B64647053121B14
:101391002E804EE50B64037048E50A640170421229
:1013A1001FD675180453F5FE53E8F8D2488032E58C
:1013B1000B6404702CE5367028E50AB412067FC26E
:1013C1007E01801AE50AB411067F587E02800FE57E
:1013D1000AB4010D900060E05403FEA3E0FF121E69
:1013E100BF121D9A1220AEE53660030208C5E5184A
:1013F100C39403401D021F9EE536B4020B30100852
:10140100E515B4040302208BE5186006121FF012E3
:031411001EB522E3
:0308FD00D21022F4
:0C20BB00EF547FFFE5AC54804FF5AC22E1
:10201A00EF5403FDE5E454FC4DF5E4EF7802CEC33A
:08202A0013CE13D8F9F5E522ED
:0D000E00AD07900064E0C4540F2DF55022A2
:10209D00EFC3941E50011FEFD3943240010F022065
:0120AD00BB77
:1019DC00AB07AA06E545540F25E025E02BFBE43ABE
:1019EC00FAC39401400AE5A530E5050BBB00010ADA
:1019FC00C3EA9402401FE42BFFEA34FEFE7C007D18
:101A0C00191217DAC3EB9FFBEA9EFAE5A530E40541
:101A1C000BBB00010AC3EB9401EA9402400AE5A651
:101A2C0030E5050BBB00010AC3EA9403400AE5A5A7
:101A3C0030E3050BBB00010AC3EA940440047A03AB
:091A4C007BFFAF03AE0202201A79
:10195A00EFC3940750117F2C12000E900060E054E0
:10196A0003F552A3E0F553E550D395514003D380D4
:10197A0001C39260E553B54F09E552B54E047F00A5
:10198A00804DD3E553954FE552954E401CE553954E
:10199A004FFFE552954EFEC374049FE49E50047FA8
:1019AA00048000EF2406FF8026C3E54F9553FFE528
:1019BA004E9552FEC374049FE49E50067E007F0437
:1019CA008000EF2403FFE43EFEC3E49FFFE49E8F02
:0219DA00542295
:101E3100C3E55464809480501B53AFFB900073E062
:101E410020E40E20E30EE5AD20E309E55C94195092
:0F1E51000343E302D238758CFF758A9CD28C2232
:10141400E54FB55308E54EB55203D38001C3925846
:10142400E551B55003D38001C39259305803205974
:101434000B302C05E514B40203302D03C23822D33B
:10144400E554648094804004A2598003A258B350A8
:1014540047758CFF758A9CD28CAF54EF3395E0FEB0
:10146400EF254FF54FEE354EF54ED3E55464809499
:1014740080400DD3E54F9553E54E95524013800BB4
:10148400C3E54F9553E54E9552500685524E85530C
:101494004FAF4FAE4E0219DCA259B3506CE5AD30DC
:1014A400E30A758CFE758AD4D28C8008758CFF751E
:1014B4008A9CD28C306018C3E5509551FF7404C3E4
:1014C4009F50067E047F048000EF2405FF801CC328
:1014D400E5509551FF7404C39F50047F048006C3F4
:1014E400E5519550FFEF2405F404FFEF2551F55124
:1014F400306007D39550400C8007E551C395505098
:0915040003855051AF5112209DE6
:01150D0022BB
:0B20D3007FFF12195A751407021E311E
:10206200900070E020E60F43F501A3E05407FFE57E
:07207200E854F84FF5E822E5
:101C8B00E5467C0030E1047D0F80027D09AE52AF4A
:101C9B00531217DAAD07AC06E55D75F004A4240208
:101CAB00FFE435F0FEC3E5539DFBE5529CFAC3EF11
:101CBB009BEE9A4010E5532DFBE5523CFAD3EF9B7C
:061CCB00EE9A500122C355
:011CD10022F0
:101EFC00C238122062E4FF12195A85524E85534F94
:101F0C00AF4FAE4E1219DC75512CAF5112209DE41F
:031F1C00F5282283
:0800030075140ED218D201227F
:101E8B0075141175600253AFFB53E3FE121EFCE594
:101E9B0015640D600BE51564036005E515B41906B3
:0A1EAB00751A00751B0F43E30222B5
:10004300751402C28CE4F523FF12195A855051E549
:100053005425E0F554C3648094805003302D03028B
:060063001E8B121E31226B
:1011A400E51B451A6011E51B151B7002151A14AED8
:1011B4001A4E7003D38001C3925AE514B41200404E
:1011C4000241F09011CD25E07321F141AE419A41E5
:1011D40007413941534153415341534153415341D1
:1011E400534153415341F0415341E841A02010027F
:1011F40041F0E4F51575140343F203C25B121ED9E2
:1012040002001E20100241ED121C8B400241F030FE
:101214002C0241F0302D0241F020100241F0E5157E
:10122400B40D02D201751A00751B0443AE1443E3D6
:101234000175140422301006202C03302D083010C0
:1012440034122108802F205A0241F0D20180432019
:1012540010028021202D03302C11202D06302C0863
:10126400203205122108800D020003E51524FC60DC
:101274000724F77077020043E51424F6600E240374
:10128400706A20386753E3FD75140A2212001E1297
:10129400204A75140522203853021E8BAF60156056
:1012A400EF704975140175600522E5F9D394075070
:1012B4002853E3FD53F2FCC201C22EE51524F3606A
:1012C4000724F4701253E73F751410E51B451A7098
:1012D4001BF51A751B0A228010E560600FD5600C9F
:0C12E40053E3FD22305A05D201E4F5145A
:0112F00022DB
:0720FA0075150475BE0722F5
:06210800C2017515192249
:101FBC00C20130180AE5166003D20122C21822E5CC
:0A1FCC001570067526031220FA2294
:100DA400E50E14601724FE7002C17C147002C1FDAC
:100DB400147002C1B6147002E117E14830530712EF
:100DC40020E9E4F52A22305222C2527888E6FF2430
:100DD40066F8A69E74662FF8E6F59FAF9FEF700342
:100DE400D38001C3B3925578880622205102E1488A
:100DF4007888E6FFD39402400CEFD39402401C2081
:100E04005419205516EF70057864F6800AEF1478AB
:100E140064F6E4F50FF511D250804130550F90007F
:100E240097E04402F0433E80433A020511E50FC3C4
:100E340094FF5026305402050FE50F2511FFE433CB
:100E4400FEC3EF9409EE64809480400E1220E99072
:100E54000134E04440F0750E0122D250750E03C2F5
:100E640054539BFB439B04E47888F6C251758DFF71
:100E7400758B60D28ED2392230500D539BFC759EF7
:100E8400FF439D02750E04227865E6FFD39400505B
:100E940002E148439B037878E6FEF59E439D0253A6
:100EA4009BFB439B04EFB40103439B088E9F750E89
:100EB4000522788806E6FFC37865E69F14602D2432
:100EC40003601414600A147026205E78859F9E22A5
:100ED400539BF5759EFF22539BFC439B02759EFF1B
:100EE400439D01E47888F67865F68023439B087473
:100EF400782FF8E6F59EF59F22439B02759EFF53DB
:100F04009DFD439D017864E66005200302D20675C9
:100F14000E06227865E6D39400400F758DFE758B1E
:100F240020D28E750E03D2398013539DFC539B142B
:100F3400750E01758DFC758BE0D28ED2392050026E
:050F4400D206C250229C
:03009300020970EF
:10097000C0E0C0F0C083C082C0D075D000C000C04D
:0D09800001C002C003C004C005C006C007CE
:10098D00AF9CEF30E607D253750E018062EF30E277
:10099D002AC28EE536700C539D7F753601759C40CD
:1009AD00439D40750E01D251E510D3940140057859
:1009BD0088E6700375100005108034EF30E330C207
:1009CD008E30E41F305205E50EB40102D252EF30E5
:1009DD00E50FD254900097E04401F0433E40433A76
:1009ED000105100510758DF3758B80D28ED23912DD
:0509FD000DA4759CFF34
:100A0200D007D006D005D004D003D002D001D00048
:0B0A1200D0D0D082D083D0F0D0E032F2
:0D0FF100E4F50E539AFB539DBF539BEF2276
:101F4100E4F59BF59D439A047888F6F52A750FFF11
:101F51007511FF759CFF439D0C439B10750E01226B
:0C20C700E50EB40105E4F510C322D3229D
:1007250001220000000000000000000000000000A1
:1007350000000000000000000000000000000000B4
:1007450001025000000000000034000034140003D2
:10075500345A78000000000000000000000000008E
:1007650020445A00000000000000000000000000C6
:100775001414140000000000000000000000000038
:100785000000000000000000000000000000000064
:100795000000000000000000000000000102B80099
:1007A500911080B10001042D030101300003000008
:1007B500A8A8A2CC5EA814329494321400000000BC
:1007C5000002000000000000000000000000000022
:1007D5002EE00FA032720000148207D00000000046
:1007E50000000000000000000000E12800000000FB
:1007F500111112141111000000000000000000008A
:1008050000000000000000000000000000000000E3
:100815001111110000000000141100121212001134
:1008250011111111111111111111111111111111B3
:1008350011111111111111111111111111111111A3
:100845001111111111111111111111111111111193
:100855000000000000000000000000000000000093
:100865000000000000000000000000001111110050
:100875001101010101010101010111110101010133
:100885000101010101010101010101010101010153
:100895000202050404040101010101010101010134
:1008A500020202020202010102020202080808080D
:1008B5000101010101010101010102020808020211
:06210100013200012F0075
:0820F200E4F52EC203020FF118
:101F61008C5A8D5B74942FF582E43400F583E55A25
:0F1F7100F074952FF582E43400F583E55BF022E0
:0F1DD100900149E0FE543FFFEEC413135403FD8D
:021DE000AB0551
:101DE2007E007A01EAD39B501675E90A8FED75EAF7
:0F1DF200008EEE1217FBAFE9AEEAE5EC0A80E5D2
:011E010022BE
:101B9500754300754494753F077540257FD0121F26
:101BA5001FC25CC25D900060E05403F552A3E0F5EE
:101BB50053788F762E0876E0788B760F0876A078A6
:101BC500917614087682788D76070876D0753C80F4
:101BD5009001347480F0E53D54014440900136F0A5
:071BE500788976100876688C
:011BEC0022D6
:101FD600E4F539F536121F41900071E05407FFE52C
:0A1FE600E854F84FF5E8752E0122CB
:10203200900134E030E30CE53E453D6006EF44801C
:08204200FF80007878A6072258
:101CD2008E528F53D3EF94F4EE940150047FAA8076
:101CE2000FD3EF9426EE940250047FA080027F9BD4
:101CF200900129EFF0121DD47889EEF608EFF67CF8
:101D0200007D321217DAE5AC547FD39FE49E400384
:071D120002180C1220D3227D
:0C150E0090014DE559F090014CE558F0BB
:10151A0090014CE0FEA3E0FDEDFBAA06C39448EA65
:10152A00940D50067A0D7B488039D3EB94E0EA9407
:10153A002E500D788FE6FE08E6FFEB9FEA9E4023C9
:10154A00788FE6FE08E6FFC374E09F742E9E50066D
:10155A007E2E7FE08000AA06AB07AD03AC027FB8FF
:10156A00121F6190014CE0FEA3E0FDEDFF7891EEC1
:10157A00F6FE08EFF6D394B8EE940B4012E6244830
:10158A00FF18E634F4FE7C007D0A1217DA80027F27
:10159A000090015EEFF07C007D14AF03AE021217DB
:1015AA00DA75E9148FED75EA008EEE1217FBAFE9D2
:1015BA00AEEAE5ECAC06AD077FAC121F617C007D9C
:1015CA0064AF03AE021217DA9000BDEFF0EB24E825
:1015DA00FFEA3403FE7C007D141217DAC3EF955339
:1015EA00EE95525007D25CE4F5358002C25CAE0239
:0C15FA00AF037C007D141217DA021CD233
:0C18000090014FE559F090014EE558F0C2
:10180C0090014EE0FEA3E0FDEDFBAA06C3942CEA8A
:10181C00940150067A017B2C80467889E6FE08E616
:10182C00FFD3EB9FEA9E500C08E6FC08E6FDEB9D0F
:10183C00EA9C402CC3EF788C96EE1896500478896D
:10184C008002788BE6FE08E6FFAA06AB07AD03AC78
:10185C00027FBA121F6190015FE0C3139000C1F0C8
:10186C0090014EE0FEA3E0FDEE788DF6ED08F61843
:10187C00E6FE08E6FF7C007D321217DA90015FEF7E
:10188C00F07C007D32AF03AE021217DA75E9328FAD
:10189C00ED75EA008EEE1217FBAFE9AEEAE5ECACA3
:1018AC0006AD077FAE121F61AE02AF037C007D3226
:0818BC001217DA8F500220D34D
:101D1900AE07EF240FFDE433FCEED39DEC6480F8AD
:101D290074809850199000B5E064036004BE3201D4
:101D39000EEE9007259378686660150E80D4EF90B3
:101D4900072593FE74942FF582E43400F583EEF0B1
:011D59002267
:100096007867E6F539C3E539786796C39410400268
:1000A600A179E5391217B404BC2B05402C05402D67
:1000B60000E4A00167A10170B101CAB3022BB90225
:1000C6002DBB022FBD02B9BF0342CA03D8CB036BB7
:1000D600CC03FCCD0547CE0547CF0000055D90015A
:1000E60034E030E62A900136E020E7177D827C1462
:1000F6007FB8121F6178917614087682788D76071C
:100106000876D0900136E04480F053E8F8801490E9
:100116000136E030E70A900134E020E503121B9532
:1001260075502C900134E030E50575360280159047
:100136000134E020E70830E60553E3FE800343E39D
:100146000112151A900134E0F53C9000BF30E40628
:10015600E04410FF8004E054EFFF9000BFEFF0A1F1
:100166005D900135E05407F0A15D900144E0FEA3E7
:10017600E0FDEDC39448EE940D5022900144E0FE5C
:10018600ED4E70139007D693900145F09007D5E495
:1001960093900144F080207D487C0D8015900144A9
:1001A600E0FEA3E0FDEDD394E0EE942E40097DE061
:1001B6007C2E7FB0121F61900144E0FEA3E0FDEEAD
:1001C600788F805B900146E0FEA3E0FDEDC3942CA2
:1001D600EE94015022900146E0FEED4E701390071A
:1001E600D793900146F09007D8E493900147F080AA
:1001F600237D2C7C018018900146E0FEA3E0FDEDF6
:10020600FF7889E6FC08E6FDD3EF9DEE9C40057F6E
:10021600B2121F61900146E0FEA3E0FDEE788BF678
:10022600ED08F6A15D615761E8900148121DD48E74
:10023600588F59900150E020E72AA3E0D39559E45E
:1002460095585011900150A3E0789226F559E4187C
:1002560036F55880557892E62559F55918E63558F9
:10026600F5588046900150A3E0FF7891E6FC08E639
:10027600FDC3EF9DE49C502D900150A3E09559E4F9
:100286009558400CED9559F559EC9558F558801A46
:10029600900150A3E0FFC37892E69FF55918E694C3
:1002A60000F5588005E4F558F55912150EE490014D
:1002B60050613D121DD18E588F59900152E020E7B2
:1002C6002AA3E0C39559E495585011900152A3E032
:1002D600788E26F559E41836F5588054788EE6253A
:1002E60059F55918E63558F5588045900152A3E05E
:1002F600C3789296E418964007E4F558F55980308D
:10030600900152A3E0C39559E495585015900152B7
:10031600A3E0FFC3788EE69FF55918E69400F558DA
:10032600800EC3788EE69559F55918E69558F55816
:10033600121800E4900152F0A3F0A15D90015EE076
:1003460075F00AA424B8FDE5F0340BFC7FB8121F43
:100356006190014CE0FEA3E0FDEE7891F6ED08F623
:1003660012151AA15D900160E020E71E547FFF90F0
:10037600012AE0FEEF8EF0A4FFAEF07891E6FC08CD
:10038600E62FF559EE3CF558803E900160E0547F2B
:10039600FF90012AE0FEEF8EF0A4FF7891E6FC08BC
:1003A600E6FDC3EF9DE5F09C5019900160E0547F97
:1003B600FFEF8EF0A4FFAEF0C3ED9FF559EC9EF56E
:1003C600588005E4F558F55912150EE4900160F0D1
:1003D600A15D90015FE075F032A4FDACF07FBA122A
:1003E6001F6190014EE0FEA3E0FDEE788DF6ED086C
:1003F600F612180CA15D121DD18E588F599001610D
:10040600E020E741547FFF90012BE0FEEF8EF0A441
:10041600C39559E5F09558501D900161E0547FFF52
:10042600EF8EF0A4FFAEF0788DE6FC08E62FF559C6
:10043600EE3CF5588076788EE62559F55918E6355E
:1004460058F5588067900161E0547FFF90012BE0DA
:10045600FEEF8EF0A4FF788DE6FC08E6FDC3EF9D67
:10046600E5F09C4007E4F558F5598040900161E0BD
:10047600547FFF90012BE0FEEF8EF0A4C39559E563
:10048600F095585019900161E0547FFFEF8EF0A46B
:10049600FFAEF0C3ED9FF559EC9EF558800EC3787C
:1004A6008EE69559F55918E69558F558121800E450
:1004B600900161F0A15D9000BFE090013430E40648
:1004C600E04410FF8004E054EFFF900134EFF09019
:1004D60000BFE020E008A37434F0A37414F0900089
:1004E600C0E075E964F5ED75EA0075EE001217FBDC
:1004F600AFE9AEEAE5EC8E588F5990014DE559F01B
:1005060090014CE558F09000C1E075E964F5ED7591
:10051600EA0075EE001217FBAFE9AEEAE5EC8E587D
:100526008F5990014FE559F090014EE558F012159C
:100536001A9000BFE05410F0801DAF39121D1980CB
:1005460016900162E0F46006A37480F08007E490E0
:100556000162F0A3F0C25D7866E6FF640B6014EFFB
:10056600B41B0CC3E5390896FF08E6146F60040552
:0305760039019BAD
:01057900225F
:10057A00E53970057867E6F539C3E539786796FB9A
:10058A00C394104002E122E5391217B406E60306C5
:10059A00F12806FC2B07052F05CAA005E3A2060EC3
:1005AA00A30619A60621A70629A80632A9068AAA19
:1005BA000691AB0632C80691C906D0CF0000070BD8
:1005CA00E5E390013430E006E04480FF8004E05423
:1005DA007FFF900134EFF0E10BE53D5401FF9001FC
:1005EA0036E054FE4FF0E5AD30E307E04410FFF08B
:1005FA008008900136E054EFFFF0900136EFF0E406
:10060A00F53DE10B900137E53EF0E4F53EE10B9054
:10061A00013A741EF0E10B90013B7421F0E10B7872
:10062A0066E6641C7002E10BE5332534FFE433FE11
:10063A00EF25E0FFEE3375E9148FED75EA00F5EE6C
:10064A001217FBAFE9AEEAE5EC8E588F5990013DDF
:10065A00E559F090013CE558F0C3E55994AEE558E8
:10066A00941540047FFF8011E5592448FFE558346A
:10067A00F4FE7C007D0A1217DA90015CEFF0E10BC0
:10068A007866E6641C607AE5302531FFE433FEEFD4
:10069A0025E0FFEE3375E9068FED75EA00F5EE12F7
:1006AA0017FBAFE9AEEAE5EC8E588F597C007D3234
:1006BA001217DA90015DEFF090013FE559F09001D1
:1006CA003EE558F0803B900163E0305D054440FF11
:1006DA00800354BFFF900163EFF08025900097E5F7
:1006EA003AF0E4F53A801A9000BCE53BF0E4F53BB9
:1006FA00800F9000BFE05410F080069000B574039C
:10070A00F07866E6FF640C600FEFB41C077868E6C1
:0A071A00146B60040539A1837F0011
:0107240022B2
:101606007866E6FE540F640B701E08E6FFD394A0BE
:101616004016EF64CE6011900134E020E60A900196
:1016260063E020E7037F0022EE30E4137867E620CC
:10163600E00A08E620E005D3941040037F002278F4
:1016460067E6FE64CE702E18E6B40B107868E6FFE7
:101656006020C394FF5005EF940B50167866E6B4ED
:101666001B137869E6FF600AC394FF5008EF940BDA
:1016760040037F00227868E6FD18E62DFDE433FC82
:10168600EEC39DEC6480F8748098504BEE9007F59D
:1016960093FD7002FF227866E6540FFCBC0B07ED43
:1016A600540A7002FF22BC0C0BEE9007F593540708
:1016B6007002FF227866E630E40BEE9007F5933071
:1016C600E4037F0022EEC394D040037F00227866B5
:0916D600E630E4030E809E7F0162
:0116DF0022E8
:10006E00900163E030E7127867E6FFC394A0400981
:0C007E00EF94CE50047F0180027F00222E
:100A6000E52E24FE7002A137046002A1A1C25EE55A
:100A70003664027026900134E030E60353E3FE1240
:100A80001FF0753700753814900060E05403FEA322
:100A9000E0FF121CD2122062C206227866E624F819
:100AA000700281D824FC607B24F1607C14700261A8
:100AB000F324D6700281F3243B6002A10F7864E630
:100AC0006403705DE510640B705712006EEF602FC9
:100AD0007867E6FFD394A7504108E6FE74D42FF55B
:100AE00082E434FFF583EEF004FE74DC2FF582E43B
:100AF00034FFF583EEF07F08122032C25D81ED12E3
:100B00001606BF01157868E6FF18E62494F582E41E
:100B10003400F583EFF07F0880027F0312203281DA
:100B2000ED81D01218C4A10F7864E6FFD39404506D
:100B30000261F17868E6FE2403FDE433FCEF6D709A
:100B400001EC600261F1EE75F002A4240BFFE435C4
:100B5000F0FEE5106F7001EE600261F112006EEFC1
:100B600060577868E6FF18E6FE2F14D394A7507AF2
:100B7000EE4F20E075E4F557E557C378689650309E
:100B800074692557F8E6FF7867E62557FE24D4F503
:100B900082E434FFF583EFF074692557F8E604FF2B
:100BA00074DC2EF582E434FFF583EFF0055780C83E
:100BB0007F08122032C25D8036121606EF64017083
:100BC00029F557E557C3786896501B74692557F87F
:100BD000E6FF7867E625572494F582E43400F58330
:100BE000EFF0055780DD7F0880027F0312203281FD
:100BF000ED81D07864E66403600281D0E510640B77
:100C0000600281D012006EEF60487868E6FF18E657
:100C1000FE2F14D394BF5038EE4F20E0337F0812DC
:100C200020327868E6047965F7E4F557E557C3782C
:100C300068964002A10C18E6255724D4F582E434C6
:100C4000FFF583E0FF74792557F8A607055780DC88
:100C50008073121606EF6401706B12057AEF600262
:100C6000A10F7F081220327868E6047965F7E4F571
:100C700057E557C3786896507818E6FF2557FE2445
:100C800094F582E43400F583E0FD74792557F8A6E5
:100C900005EE9007F59330E228E5572FFFE433FE89
:100CA000EF64A24E7009900136E054F8FF80027F95
:100CB000007867E625572494F582E43400F583EF45
:100CC000F0055780AC7F0312203278657601803CB6
:100CD000E4F539752E018037E532B40804052F801C
:100CE00006753208752F01D25E78787608786576B9
:100CF000018019E532B44604052F80067532467529
:100D00002F01D25E7878764678657601752E02E5F9
:100D10003664016002A1A1900135E0540775E9F93C
:100D2000F5ED75EA0175EE001217FBAFE9AEEAE5E5
:100D3000EC8E378F38806A7866E630E0297878E67E
:100D400030E32312006EEF601A7867E6FF64A76055
:100D50000E18E6B41B10EF78682614FFBFA707D261
:100D6000038003120096305E28E52FC394034021D0
:100D7000E53224BA600F243E701775520175530492
:100D800075502C80097552017553C475502412207A
:100D9000D3E4F539752E01F510E536B402030220CF
:030DA000E9C2069F
:010DA300222D
:1018C4007864E6640260022153E510640960022131
:1018D4005312006EEF601F7867E6D394BF50637FA6
:1018E400081220327867E624D4F582E434FFF583C5
:1018F400E07879F68046121606EF6401704412050A
:101904007A7F081220327867E6FF2494F582E43463
:1019140000F583E0FE7879F6EF9007F59330E21C4A
:101924007867E6B4A206EE54F8FF80027F00786779
:10193400E62494F582E43400F583EFF078657602CA
:1019440080097F0312203278657601752E0222E425
:06195400F539752E012299
:101D9A00900135E054076022900134E030E61BE5FB
:101DAA0018D394034014E538153870021537E5380E
:101DBA0045377006753D011220E9305C09E535C3E7
:071DCA0094FA5002053522D6
:10204A00305C12E535D394C850047F8080027F004B
:08205A00900138EFF0C25C2296
:10208B00E538153870021537E5384537700343E3EB
:02209B00012220
:1008C500900134E0FF30E418052DE52DD394C840A0
:1008D50026EF54EFF09000BFE054EFF0750B0122C6
:1008E500E4F52DE5366402600EE50A540F7008E55F
:0808F5000BB403031220E922F9
:0920E900753602D206752E0122A3
:0D20AE00853334855D33853031855C30220B
:102000007B017A007974900162E0FD1220DEBF014D
:0A20100003D38001C3925DC20322D6
:0B20DE008B578A5889598D5A7F0122C8
:03000000020F49A3
:100F490078FEE4F6D8FD9000007FFF7E01E4F0A36F
:100F5900DFFCDEFA9001007F807E01E4F0A3DFFC74
:080F6900DEFA758192020FAC63
:100F7100021AC4E493A3F8E493A34003F68001F2B8
:100F810008DFF48029E493A3F85407240CC8C33381
:100F9100C4540F4420C8834004F456800146F6DF50
:100FA100E4800B0102040810204080902101E47EBE
:100FB100019360BCA3FF543F30E509541FFEE49345
:100FC100A360010ECF54C025E060A840B8E493A30C
:100FD100FAE493A3F8E493A3C8C582C8CAC583CA37
:100FE100F0A3C8C582C8CAC583CADFE9DEE780BEEF
:0121070000D7
:1017B400D083D082F8E4937012740193700DA3A3C4
:1017C40093F8740193F5828883E4737402936860D8
:0617D400EFA3A3A380DFD8
:1017DA008FE98EEA8DED8CEE00000000000000001B
:0A17EA0000AFE9AEEAADEDACEE226F
:0C17F400000000000000000000000022C7
:00000001FF
