:10013E007808E6FF2400F582E43400F583740DF0B0
:10014E0074012FF582E43400F583740AF074022FE3
:10015E00F582E43400F583743AF074032FF582E4EB
:0A016E003400F583E4F0D200F6221D
:03005300020003A5
:1000030020830C758C00758A01D28C75DF0832C28F
:020013008C322D
:030023000200EDEB
:1000ED00C0E0C083C082C0D075D000C000C0073052
:1000FD00982BC2982000267808E6FF2400F582E4AC
:10010D003400F583E599F074002FF582E43400F5A1
:10011D0083E0B40D0512013E800378080630990482
:10012D00D200C299D007D000D0D0D082D083D0E0F9
:01013D00328F
:10005600900940E493F5A1A3E493F5A2A3E493F5F4
:10006600A3A3E493F5A4A3E493F5A5E47808F678AE
:1000760008E6FFC394FF500F74002FF582E43400A6
:10008600F583E4F00680E88F807808E6062400F51C
:1000960082E43400F583E4F0758002058075E4C0DF
:1000A600D2DF43878075AAF375BAC37598501201DB
:1000B6003E75DE0875DFFFD2BAD2ACD2AF3000FD96
:1000C6007808E62400F582E43400F583E06010E663
:1000D600062400F582E43400F583E0F5998004E413
:0700E6007808F6C20080D685
:03000000020015E6
:0C001500787FE4F6D8FD758120020056CB
:00000001FF
