:08003B00040002030104FE04AD
:10000300EF25E0243CF582E43400F583E4932400F7
:09001300F582E43400AF82FE2204
:03004B0002004E62
:10004E00C0E0C083C082C0D075D000C000C006C062
:10005E0007E5CC30E21BE510B40210E511C39404A1
:10006E00500974082511F8A6CD051175CC040201AE
:10007E0018E5CC30E63EE510B40107E511C3940453
:10008E004004E5117029AFC11200038F828E83E503
:10009E00822511F582E43EF583E0FFAEC18E82EE3D
:1000AE002480F582E433F583EFF0051175100175A8
:1000BE00CC408056E5CC30E422E5C1C39404501602
:1000CE00751100AFC18F82EF2480F582E433F58382
:1000DE00E0F50C75100275CC10802FE5CC30E52ABA
:1000EE0075CC20AFC18F82EF2480F582E433F58387
:1000FE00E50CF0E510B4020FE511D394004008852D
:10010E00C112851113D200751000D007D006D00091
:09011E00D0D0D082D083D0E032B1
:10001C0043D120E4F51090008374CDF0900004746B
:03002C0030F0228F
:1001270012001C75C93A75CB74D2B9D2AF3000FD35
:10013700851280E4FDEDC39513500A74082DF8E687
:10014700F5800D80F0E51225E0243BF582E43400CC
:10015700F583E4936513703BE5122480F582E4335D
:10016700F583E508F07D01EDC39513502674082D3E
:10017700F8E6FCAF121200038F828E83ED24FFFF97
:10018700E434FFFEE5822FF582E5833EF583ECF04C
:070197000D80D4C200809628
:0300000002002FCC
:0C002F00787FE4F6D8FD758120020127DF
:00000001FF
